S0190000555345525F4150504C49434154494F4E312E7372656308
S113000094C10000B8C10000B6C10000B4C1000032
S1130010B2C10000B0C10000AEC10000ACC100001C
S1130020AAC10000A8C10000A6C10000A4C100002C
S11300300C949D120C94120C13C2000049C20000CF
S11300407FC20000B5C20000EBC2000021C3000063
S113005057C300008DC30000C3C30000F9C30000F0
S11300608AC100000C945B1186C1000084C10000A9
S113007082C1000080C100007EC100007CC100007C
S11300807AC1000078C1000076C1000074C100008C
S113009072C1000070C100006EC100006CC100009C
S11300A06AC1000068C1000066C1000064C10000AC
S11300B062C100000C9407130C94760C31C6000046
S11300C067C600009DC60000D3C6000009C7000033
S11300D03FC7000075C70000ABC70000E1C70000C0
S11300E00C94880848C1000046C1000044C10000C7
S11300F042C1000040C100003EC100003CC10000FC
S11301003AC1000038C1000036C1000034C100000B
S113011032C1000030C100002EC100002CC100001B
S11301202AC1000028C1000026C100000C94D2128C
S11301300C94440CC5C30000FBC3000031C4000090
S113014067C400009DC40000D3C4000009C50000BA
S11301503FC5000075C50000ABC500000CC1000020
S11301600AC1000008C1000006C1000004C100006B
S113017002C1000000C10000FEC00000FCC000007D
S1130180FAC00000F8C00000F6C00000F4C000008F
S1130190F2C00000F0C00000EEC00000ECC000009F
S11301A0EAC00000E8C000000C943C130C94A80CB6
S11301B0E7C700000C94F8080C9430090C94680903
S11301C00C94A0090C94D8090C94100A0C94480AB5
S11301D00C94800A0C94B80ACEC00000CCC0000075
S11301E0CAC00000C8C00000C6C00000C4C00000EF
S11301F0C2C00000B22DCA2DCF2D442E6D2ED42D99
S1130200E22D6D2EEB2DF42DFD2D062E0B2E6D2ED5
S11302106D2E102E6D2E6D2E192E1E2E272E2C2E89
S11302206D2E312E3A2E3F2E6E616E00696E660081
S113023000407A10F35A00A0724E18090010A5D499
S1130240E80000E87648170000E40B54020000CAF6
S11302509A3B000000E1F50500008096980000003C
S113026040420F000000A08601000000102700009B
S11302700000E803000000006400000000000A0021
S1130280000000000100000000002C76D888DC6724
S11302904F0823DFC1DFAE59E1B1B796E5E3E4537C
S11302A0C63AE651997696E8E6C28426EB898C9B99
S11302B062ED407C6FFCEFBC9C9F40F2BAA56FA539
S11302C0F490055A2AF75C936B6CF9676DC11BFCBB
S11302D0E0E40D47FEF520E6B500D0ED902E0300D6
S11302E0943577050080841E080000204E0A000023
S11302F000C80C333333330F986E12831141EF8DE2
S11303002114893BE65516CFFEE6DB18D1844B3821
S11303101BF77C1D901DA4BBE424203284725E2252
S11303208100C9F124ECA1E53D2711241FBECFEFC4
S1130330CDBFDFE3DEBF00E00CBF18BE19BE1ABE9E
S11303401BBE16E2A0E0B0E2E6E2FEE600E00BBF70
S113035002C007900D92A238B107D9F71BBE29E35A
S1130360A2E8B6E201C01D92A733B207E1F70E94EA
S11303701F2D0C94113744CE8FEF8093700080931F
S11303807100809372008093730080937400809353
S11303907500809376009FB7F89480915000826036
S11303A0809350009FBF8091510081FFFCCF61E09A
S11303B080E490E04FD09FB7F894809150008E7FF6
S11303C0809350009FBF08959FB7F894E82FF0E002
S11303D0E059FF4F60958081862380839FBF0895F5
S11303E0282FFB0180E090E0841795072CF43191CD
S11303F0321721F00196F8CF8FEF9FEF0895CF9336
S1130400DF931F92CDB7DEB78091F8279091F9273B
S1130410E091F427F091F527BE016F5F7F4F1995A6
S11304208981992787FD90950F90DF91CF91089549
S1130430682F8091F8279091F927E091F627F091A1
S1130440F727199597FF03C08FEF9FEF089581E079
S113045090E008951BBEFC0128ED24BF608308953D
S11304601F920F920FB60F92112408B60F9218BE66
S113047009B60F9219BE0BB60F921BBE2F933F9372
S11304804F935F936F937F938F939F93AF93BF9398
S1130490EF93FF93E091D026F091D126309709F0A5
S11304A01995FF91EF91BF91AF919F918F917F919A
S11304B06F915F914F913F912F910F900BBE0F90D1
S11304C009BE0F9008BE0F900FBE0F901F90189595
S11304D01F920F920FB60F92112408B60F9218BEF6
S11304E009B60F9219BE0BB60F921BBE2F933F9302
S11304F04F935F936F937F938F939F93AF93BF9328
S1130500EF93FF93E091CE26F091CF26309709F038
S11305101995FF91EF91BF91AF919F918F917F9129
S11305206F915F914F913F912F910F900BBE0F9060
S113053009BE0F9008BE0F900FBE0F901F90189524
S11305401F920F920FB60F92112408B60F9218BE85
S113055009B60F9219BE0BB60F921BBE2F933F9391
S11305604F935F936F937F938F939F93AF93BF93B7
S1130570EF93FF93E091CC26F091CD26309709F0CC
S11305801995FF91EF91BF91AF919F918F917F91B9
S11305906F915F914F913F912F910F900BBE0F90F0
S11305A009BE0F9008BE0F900FBE0F901F901895B4
S11305B01F920F920FB60F92112408B60F9218BE15
S11305C009B60F9219BE0BB60F921BBE2F933F9321
S11305D04F935F936F937F938F939F93AF93BF9347
S11305E0EF93FF93E091CA26F091CB26309709F060
S11305F01995FF91EF91BF91AF919F918F917F9149
S11306006F915F914F913F912F910F900BBE0F907F
S113061009BE0F9008BE0F900FBE0F901F90189543
S11306201F920F920FB60F92112408B60F9218BEA4
S113063009B60F9219BE0BB60F921BBE2F933F93B0
S11306404F935F936F937F938F939F93AF93BF93D6
S1130650EF93FF93E091C826F091C926309709F0F3
S11306601995FF91EF91BF91AF919F918F917F91D8
S11306706F915F914F913F912F910F900BBE0F900F
S113068009BE0F9008BE0F900FBE0F901F901895D3
S11306901F920F920FB60F92112408B60F9218BE34
S11306A009B60F9219BE0BB60F921BBE2F933F9340
S11306B04F935F936F937F938F939F93AF93BF9366
S11306C0EF93FF93E091C626F091C726309709F087
S11306D01995FF91EF91BF91AF919F918F917F9168
S11306E06F915F914F913F912F910F900BBE0F909F
S11306F009BE0F9008BE0F900FBE0F901F90189563
S11307001F920F920FB60F92112408B60F9218BEC3
S113071009B60F9219BE0BB60F921BBE2F933F93CF
S11307204F935F936F937F938F939F93AF93BF93F5
S1130730EF93FF93E091C426F091C526309709F01A
S11307401995FF91EF91BF91AF919F918F917F91F7
S11307506F915F914F913F912F910F900BBE0F902E
S113076009BE0F9008BE0F900FBE0F901F901895F2
S11307701F920F920FB60F92112408B60F9218BE53
S113078009B60F9219BE0BB60F921BBE2F933F935F
S11307904F935F936F937F938F939F93AF93BF9385
S11307A0EF93FF93E091C226F091C326309709F0AE
S11307B01995FF91EF91BF91AF919F918F917F9187
S11307C06F915F914F913F912F910F900BBE0F90BE
S11307D009BE0F9008BE0F900FBE0F901F90189582
S11307E01F920F920FB60F92112408B60F9218BEE3
S11307F009B60F9219BE0BB60F921BBE2F933F93EF
S11308004F935F936F937F938F939F93AF93BF9314
S1130810EF93FF93E091C026F091C126309709F041
S11308201995FF91EF91BF91AF919F918F917F9116
S11308306F915F914F913F912F910F900BBE0F904D
S113084009BE0F9008BE0F900FBE0F901F90189511
S11308501F920F920FB60F92112408B60F9218BE72
S113086009B60F9219BE0BB60F921BBE2F933F937E
S11308704F935F936F937F938F939F93AF93BF93A4
S1130880EF93FF93E091BE26F091BF26309709F0D5
S11308901995FF91EF91BF91AF919F918F917F91A6
S11308A06F915F914F913F912F910F900BBE0F90DD
S11308B009BE0F9008BE0F900FBE0F901F901895A1
S11308C01F920F920FB60F92112408B60F9218BE02
S11308D009B60F9219BE0BB60F921BBE2F933F930E
S11308E04F935F936F937F938F939F93AF93BF9334
S11308F0EF93FF93E091BC26F091BD26309709F069
S11309001995FF91EF91BF91AF919F918F917F9135
S11309106F915F914F913F912F910F900BBE0F906C
S113092009BE0F9008BE0F900FBE0F901F90189530
S11309301F920F920FB60F92112408B60F9218BE91
S113094009B60F9219BE0BB60F921BBE2F933F939D
S11309504F935F936F937F938F939F93AF93BF93C3
S1130960EF93FF93E091BA26F091BB26309709F0FC
S11309701995FF91EF91BF91AF919F918F917F91C5
S11309806F915F914F913F912F910F900BBE0F90FC
S113099009BE0F9008BE0F900FBE0F901F901895C0
S11309A01F920F920FB60F92112408B60F9218BE21
S11309B009B60F9219BE0BB60F921BBE2F933F932D
S11309C04F935F936F937F938F939F93AF93BF9353
S11309D0EF93FF93E091B826F091B926309709F090
S11309E01995FF91EF91BF91AF919F918F917F9155
S11309F06F915F914F913F912F910F900BBE0F908C
S1130A0009BE0F9008BE0F900FBE0F901F9018954F
S1130A101F920F920FB60F92112408B60F9218BEB0
S1130A2009B60F9219BE0BB60F921BBE2F933F93BC
S1130A304F935F936F937F938F939F93AF93BF93E2
S1130A40EF93FF93E091B626F091B726309709F023
S1130A501995FF91EF91BF91AF919F918F917F91E4
S1130A606F915F914F913F912F910F900BBE0F901B
S1130A7009BE0F9008BE0F900FBE0F901F901895DF
S1130A801F920F920FB60F92112408B60F9218BE40
S1130A9009B60F9219BE0BB60F921BBE2F933F934C
S1130AA04F935F936F937F938F939F93AF93BF9372
S1130AB0EF93FF93E091B426F091B526309709F0B7
S1130AC01995FF91EF91BF91AF919F918F917F9174
S1130AD06F915F914F913F912F910F900BBE0F90AB
S1130AE009BE0F9008BE0F900FBE0F901F9018956F
S1130AF01F920F920FB60F92112408B60F9218BED0
S1130B0009B60F9219BE0BB60F921BBE2F933F93DB
S1130B104F935F936F937F938F939F93AF93BF9301
S1130B20EF93FF93E091B226F091B326309709F04A
S1130B301995FF91EF91BF91AF919F918F917F9103
S1130B406F915F914F913F912F910F900BBE0F903A
S1130B5009BE0F9008BE0F900FBE0F901F901895FE
S1130B601F920F920FB60F92112408B60F9218BE5F
S1130B7009B60F9219BE0BB60F921BBE2F933F936B
S1130B804F935F936F937F938F939F93AF93BF9391
S1130B90EF93FF93E091B026F091B126309709F0DE
S1130BA01995FF91EF91BF91AF919F918F917F9193
S1130BB06F915F914F913F912F910F900BBE0F90CA
S1130BC009BE0F9008BE0F900FBE0F901F9018958E
S1130BD01F920F920FB60F92112408B60F9218BEEF
S1130BE009B60F9219BE0BB60F921BBE2F933F93FB
S1130BF04F935F936F937F938F939F93AF93BF9321
S1130C00EF93FF93E091AE26F091AF26309709F071
S1130C101995FF91EF91BF91AF919F918F917F9122
S1130C206F915F914F913F912F910F900BBE0F9059
S1130C3009BE0F9008BE0F900FBE0F901F9018951D
S1130C401F920F920FB60F92112408B60F9218BE7E
S1130C5009B60F9219BE0BB60F921BBE2F933F938A
S1130C604F935F936F937F938F939F93AF93BF93B0
S1130C70EF93FF93E091AC26F091AD26309709F005
S1130C801995FF91EF91BF91AF919F918F917F91B2
S1130C906F915F914F913F912F910F900BBE0F90E9
S1130CA009BE0F9008BE0F900FBE0F901F901895AD
S1130CB01F920F920FB60F92112408B60F9218BE0E
S1130CC009B60F9219BE0BB60F921BBE2F933F931A
S1130CD04F935F936F937F938F939F93AF93BF9340
S1130CE0EF93FF93E091AA26F091AB26309709F099
S1130CF01995FF91EF91BF91AF919F918F917F9142
S1130D006F915F914F913F912F910F900BBE0F9078
S1130D1009BE0F9008BE0F900FBE0F901F9018953C
S1130D201F920F920FB60F92112408B60F9218BE9D
S1130D3009B60F9219BE0BB60F921BBE2F933F93A9
S1130D404F935F936F937F938F939F93AF93BF93CF
S1130D50EF93FF93E091A826F091A926309709F02C
S1130D601995FF91EF91BF91AF919F918F917F91D1
S1130D706F915F914F913F912F910F900BBE0F9008
S1130D8009BE0F9008BE0F900FBE0F901F901895CC
S1130D901F920F920FB60F92112408B60F9218BE2D
S1130DA009B60F9219BE0BB60F921BBE2F933F9339
S1130DB04F935F936F937F938F939F93AF93BF935F
S1130DC0EF93FF93E091A626F091A726309709F0C0
S1130DD01995FF91EF91BF91AF919F918F917F9161
S1130DE06F915F914F913F912F910F900BBE0F9098
S1130DF009BE0F9008BE0F900FBE0F901F9018955C
S1130E001F920F920FB60F92112408B60F9218BEBC
S1130E1009B60F9219BE0BB60F921BBE2F933F93C8
S1130E204F935F936F937F938F939F93AF93BF93EE
S1130E30EF93FF93E091A426F091A526309709F053
S1130E401995FF91EF91BF91AF919F918F917F91F0
S1130E506F915F914F913F912F910F900BBE0F9027
S1130E6009BE0F9008BE0F900FBE0F901F901895EB
S1130E701F920F920FB60F92112408B60F9218BE4C
S1130E8009B60F9219BE0BB60F921BBE2F933F9358
S1130E904F935F936F937F938F939F93AF93BF937E
S1130EA0EF93FF93E091A226F091A326309709F0E7
S1130EB01995FF91EF91BF91AF919F918F917F9180
S1130EC06F915F914F913F912F910F900BBE0F90B7
S1130ED009BE0F9008BE0F900FBE0F901F9018957B
S1130EE01F920F920FB60F92112408B60F9218BEDC
S1130EF009B60F9219BE0BB60F921BBE2F933F93E8
S1130F004F935F936F937F938F939F93AF93BF930D
S1130F10EF93FF93E091A026F091A126309709F07A
S1130F201995FF91EF91BF91AF919F918F917F910F
S1130F306F915F914F913F912F910F900BBE0F9046
S1130F4009BE0F9008BE0F900FBE0F901F9018950A
S1130F501F920F920FB60F92112408B60F9218BE6B
S1130F6009B60F9219BE0BB60F921BBE2F933F9377
S1130F704F935F936F937F938F939F93AF93BF939D
S1130F80EF93FF93E0919E26F0919F26309709F00E
S1130F901995FF91EF91BF91AF919F918F917F919F
S1130FA06F915F914F913F912F910F900BBE0F90D6
S1130FB009BE0F9008BE0F900FBE0F901F9018959A
S1130FC01F920F920FB60F92112408B60F9218BEFB
S1130FD009B60F9219BE0BB60F921BBE2F933F9307
S1130FE04F935F936F937F938F939F93AF93BF932D
S1130FF0EF93FF93E0919C26F0919D26309709F0A2
S11310001995FF91EF91BF91AF919F918F917F912E
S11310106F915F914F913F912F910F900BBE0F9065
S113102009BE0F9008BE0F900FBE0F901F90189529
S11310301F920F920FB60F92112408B60F9218BE8A
S113104009B60F9219BE0BB60F921BBE2F933F9396
S11310504F935F936F937F938F939F93AF93BF93BC
S1131060EF93FF93E0919A26F0919B26309709F035
S11310701995FF91EF91BF91AF919F918F917F91BE
S11310806F915F914F913F912F910F900BBE0F90F5
S113109009BE0F9008BE0F900FBE0F901F901895B9
S11310A01F920F920FB60F92112408B60F9218BE1A
S11310B009B60F9219BE0BB60F921BBE2F933F9326
S11310C04F935F936F937F938F939F93AF93BF934C
S11310D0EF93FF93E0919826F0919926309709F0C9
S11310E01995FF91EF91BF91AF919F918F917F914E
S11310F06F915F914F913F912F910F900BBE0F9085
S113110009BE0F9008BE0F900FBE0F901F90189548
S11311101F920F920FB60F92112408B60F9218BEA9
S113112009B60F9219BE0BB60F921BBE2F933F93B5
S11311304F935F936F937F938F939F93AF93BF93DB
S1131140EF93FF93E0919626F0919726309709F05C
S11311501995FF91EF91BF91AF919F918F917F91DD
S11311606F915F914F913F912F910F900BBE0F9014
S113117009BE0F9008BE0F900FBE0F901F901895D8
S11311801F920F920FB60F92112408B60F9218BE39
S113119009B60F9219BE0BB60F921BBE2F933F9345
S11311A04F935F936F937F938F939F93AF93BF936B
S11311B0EF93FF93E0919426F0919526309709F0F0
S11311C01995FF91EF91BF91AF919F918F917F916D
S11311D06F915F914F913F912F910F900BBE0F90A4
S11311E009BE0F9008BE0F900FBE0F901F90189568
S11311F01F920F920FB60F92112408B60F9218BEC9
S113120009B60F9219BE0BB60F921BBE2F933F93D4
S11312104F935F936F937F938F939F93AF93BF93FA
S1131220EF93FF93E0919226F0919326309709F083
S11312301995FF91EF91BF91AF919F918F917F91FC
S11312406F915F914F913F912F910F900BBE0F9033
S113125009BE0F9008BE0F900FBE0F901F901895F7
S11312601F920F920FB60F92112408B60F9218BE58
S113127009B60F9219BE0BB60F921BBE2F933F9364
S11312804F935F936F937F938F939F93AF93BF938A
S1131290EF93FF93E0919026F0919126309709F017
S11312A01995FF91EF91BF91AF919F918F917F918C
S11312B06F915F914F913F912F910F900BBE0F90C3
S11312C009BE0F9008BE0F900FBE0F901F90189587
S11312D01F920F920FB60F92112408B60F9218BEE8
S11312E009B60F9219BE0BB60F921BBE2F933F93F4
S11312F04F935F936F937F938F939F93AF93BF931A
S1131300EF93FF93E0918E26F0918F26309709F0AA
S11313101995FF91EF91BF91AF919F918F917F911B
S11313206F915F914F913F912F910F900BBE0F9052
S113133009BE0F9008BE0F900FBE0F901F90189516
S11313401F920F920FB60F92112408B60F9218BE77
S113135009B60F9219BE0BB60F921BBE2F933F9383
S11313604F935F936F937F938F939F93AF93BF93A9
S1131370EF93FF93E0918C26F0918D26309709F03E
S11313801995FF91EF91BF91AF919F918F917F91AB
S11313906F915F914F913F912F910F900BBE0F90E2
S11313A009BE0F9008BE0F900FBE0F901F901895A6
S11313B01F920F920FB60F92112408B60F9218BE07
S11313C009B60F9219BE0BB60F921BBE2F933F9313
S11313D04F935F936F937F938F939F93AF93BF9339
S11313E0EF93FF93E0918A26F0918B26309709F0D2
S11313F01995FF91EF91BF91AF919F918F917F913B
S11314006F915F914F913F912F910F900BBE0F9071
S113141009BE0F9008BE0F900FBE0F901F90189535
S11314201F920F920FB60F92112408B60F9218BE96
S113143009B60F9219BE0BB60F921BBE2F933F93A2
S11314404F935F936F937F938F939F93AF93BF93C8
S1131450EF93FF93E0918826F0918926309709F065
S11314601995FF91EF91BF91AF919F918F917F91CA
S11314706F915F914F913F912F910F900BBE0F9001
S113148009BE0F9008BE0F900FBE0F901F901895C5
S11314901F920F920FB60F92112408B60F9218BE26
S11314A009B60F9219BE0BB60F921BBE2F933F9332
S11314B04F935F936F937F938F939F93AF93BF9358
S11314C0EF93FF93E0918626F0918726309709F0F9
S11314D01995FF91EF91BF91AF919F918F917F915A
S11314E06F915F914F913F912F910F900BBE0F9091
S11314F009BE0F9008BE0F900FBE0F901F90189555
S11315001F920F920FB60F92112408B60F9218BEB5
S113151009B60F9219BE0BB60F921BBE2F933F93C1
S11315204F935F936F937F938F939F93AF93BF93E7
S1131530EF93FF93E0918426F0918526309709F08C
S11315401995FF91EF91BF91AF919F918F917F91E9
S11315506F915F914F913F912F910F900BBE0F9020
S113156009BE0F9008BE0F900FBE0F901F901895E4
S11315701F920F920FB60F92112408B60F9218BE45
S113158009B60F9219BE0BB60F921BBE2F933F9351
S11315904F935F936F937F938F939F93AF93BF9377
S11315A0EF93FF93E0918226F0918326309709F020
S11315B01995FF91EF91BF91AF919F918F917F9179
S11315C06F915F914F913F912F910F900BBE0F90B0
S11315D009BE0F9008BE0F900FBE0F901F90189574
S11315E0CF93CFB7F894811528E0920711F461E006
S11315F005C0803428E0920739F462E083E00E9459
S1131600E40164E083E031C0811529E0920711F41C
S113161061E005C0803429E0920739F462E084E097
S11316200E94E40164E084E020C081152AE092076E
S113163011F461E005C080342AE0920739F462E0D5
S113164085E00E94E40164E085E00FC081152BE091
S1131650920711F461E004C080349B4041F462E0DD
S113166086E00E94E40164E086E00E94E401CFBFCA
S1131670CF910895811528E0920729F46093D0262C
S11316807093D1260895803428E0920729F460935A
S1131690C4267093C5260895811529E0920729F47C
S11316A06093BC267093BD260895803429E0920788
S11316B029F46093B0267093B126089581152AE029
S11316C0920729F46093A8267093A926089580347C
S11316D02AE0920729F460939C2670939D2608952E
S11316E081152BE0920729F4609394267093952634
S11316F0089580349B4021F4609388267093892652
S11317000895CF93DF93E091D226F091D32684817C
S113171083FF06C08860848383E0838386EF7DC073
S1131720982F947121F083E083838FEF76C086FF36
S113173040C0A091D426B091D5268091D626909110
S1131740D72614962D913C9115978217930764F42C
S11317509C012F5F3F4F2093D6263093D726A80FA6
S1131760B91F11968C9121C08091D8269091D926C9
S113177018962D913C91199782179307C0F42091E4
S1131780DA26222321F086818160868348C016965A
S11317900D90BC91A02D9C012F5F3F4F2093D82624
S11317A03093D926A80FB91F8C91878338C083E062
S11317B02BC087FF31C0A091D426B091D52680914B
S11317C0D8269091D92618962D913C911997821775
S11317D09307F0F41696CD91DC9117979C012F5F37
S11317E03F4F2093D8263093D9264781C80FD91F5D
S11317F0488318968D919C9119972817390718F4E6
S113180082E083830CC087E083831092DC2607C0C8
S113181083E0838389EF01C08BEF8093DC26DF9123
S1131820CF9108951F920F920FB60F92112408B60C
S11318300F9218BE09B60F9219BE0BB60F921BBEBB
S11318402F933F934F935F936F937F938F939F93C4
S1131850AF93BF93EF93FF9354DFFF91EF91BF9149
S1131860AF919F918F917F916F915F914F913F9134
S11318702F910F900BBE0F9009BE0F9008BE0F90D2
S11318800FBE0F901F9018951F920F920FB60F92D4
S1131890112408B60F9218BE09B60F9219BE0BB6E2
S11318A00F921BBE2F933F934F935F936F937F933E
S11318B08F939F93AF93BF93EF93FF9322DFFF9197
S11318C0EF91BF91AF919F918F917F916F915F91B4
S11318D04F913F912F910F900BBE0F9009BE0F9027
S11318E008BE0F900FBE0F901F9018951F920F9275
S11318F00FB60F92112408B60F9218BE09B60F92B4
S113190019BE0BB60F921BBE2F933F934F935F9359
S11319106F937F938F939F93AF93BF93EF93FF93B3
S1131920F0DEFF91EF91BF91AF919F918F917F91E5
S11319306F915F914F913F912F910F900BBE0F903C
S113194009BE0F9008BE0F900FBE0F901F90189500
S11319501F920F920FB60F92112408B60F9218BE61
S113196009B60F9219BE0BB60F921BBE2F933F936D
S11319704F935F936F937F938F939F93AF93BF9393
S1131980EF93FF93BEDEFF91EF91BF91AF919F91D3
S11319908F917F916F915F914F913F912F910F9014
S11319A00BBE0F9009BE0F9008BE0F900FBE0F9094
S11319B01F901895FC016083718342835383EC5F0D
S11319C0FD4F10823196108231961082319610822A
S11319D0319610820895DC01ED91FC9111974863D2
S11319E04087ED91FC91660F63870895CF93DF9351
S11319F0FC01885F9D4FDC012C911197EF01CA5FB8
S1131A00DD4F222359F00190F081E02D22E021875F
S1131A1026E02C931882FC01108216C081E0888392
S1131A201C92A081B18118968C9118978B7F18967F
S1131A308C93DF01AC5FBD4F1C9211961C920190F8
S1131A40F081E02D83E08187DF91CF910895DC015F
S1131A50ED91FC91119720852B7F2087ED91FC91CE
S1131A60228520642287FC01E95FFD4F21E0208369
S1131A703197108208950F931F93CF93DF93EC0156
S1131A80E881F9818085846080878E010C5F1D4F19
S1131A90F8018081E881F9818485F8019081FE0153
S1131AA0E90FF11D8483EA81FB811995F801808196
S1131AB08F5F8083DE01A85FBD4F8C91E881F9813F
S1131AC0882361F082E08187FE01E95FFD4F86E0B3
S1131AD08083CA5FDD4F18821C9202C083E0818735
S1131AE0DF91CF911F910F910895CF93DF93FC0164
S1131AF0EB5FFD4F2081EC01A881B981222371F0B5
S1131B001A962C911A9724FF09C022E019962C9357
S1131B10329621E020833197108212C020812081E7
S1131B20EC01C20FD11DCC5FDE4F28811C962C9393
S1131B3020812F5F2083DC01ED91FC9183E081877C
S1131B40DF91CF910895DC01ED91FC91228521FD77
S1131B50CCCF91CFDC01ED91FC91228522FF09C00D
S1131B60FC01EC5FFD4F108231961082329624E026
S1131B7016C023FF09C0FC01EC5FFD4F10823196B3
S1131B801082329623E00BC026FF03C020FD2ECF27
S1131B905ECF27FDD8CFFC01E95FFD4F25E0208310
S1131BA0319710820895009709F4F0C0803C9105A4
S1131BB011F460E105C0803424E0920719F468E070
S1131BC080E0E2C0811524E0920711F464E0F8CFCC
S1131BD0803821E0920711F462E0F2CF811521E010
S1131BE0920711F461E0ECCF803823E0920711F4FE
S1131BF061E017C0803923E0920711F461E018C056
S1131C00811522E0920711F462E00BC0803422E0D7
S1131C10920711F462E00CC0811523E0920719F4D5
S1131C2064E081E0B1C0803223E0920719F464E0FB
S1131C3082E0AAC0811528E0920711F461E08FC008
S1131C40811529E0920711F461E090C081152AE022
S1131C50920711F461E091C081152BE0920711F411
S1131C6061E091C0803428E0920711F462E077C00B
S1131C70803429E0920711F462E078C080342AE0CD
S1131C80920711F462E079C080342BE0920711F4DA
S1131C9062E079C0803928E0920711F464E05FC003
S1131CA0803929E0920711F464E060C080392AE0A9
S1131CB0920711F464E061C080392BE0920711F4BB
S1131CC064E061C0803C28E0920711F468E047C0FA
S1131CD0803C29E0920711F468E048C0803C2AE087
S1131CE0920711F468E049C0803C2BE0920711F49C
S1131CF068E049C0803A28E0920711F460E12FC0FF
S1131D00803A29E0920711F460E130C0803A2AE079
S1131D10920711F460E131C0803A2BE0920711F48C
S1131D2060E131C0803B28E0920711F460E217C003
S1131D30803B29E0920711F460E218C0803B2AE05E
S1131D40920711F460E219C0803B2BE0920711F472
S1131D5060E219C0803824E0920719F460E483E05B
S1131D6013C0803924E0920719F460E484E00CC0C5
S1131D70803A24E0920719F460E485E005C0803BD2
S1131D80944021F460E486E00C94E4010895FC019D
S1131D90218125FFFCCF608380E090E00895FC0161
S1131DA0808108958F929F92AF92BF92CF92DF92DB
S1131DB0EF92FF920F931F93CF93DF93EC016A018D
S1131DC07B0148015901B901A801A3E07695679503
S1131DD057954795AA95D1F7D901C80116E1B6954B
S1131DE0A795979587951A95D1F72C8122FD08C060
S1131DF07695679557954795B695A7959795879541
S1131E004C155D056E057F0508F49AC0C816D90601
S1131E10EA06FB0608F494C08C8182FD04C0CC0C55
S1131E20DD1CEE1CFF1CC501B401A70196010E9434
S1131E3073338FEF90E0A0E0B0E019EF2817390773
S1131E404A075B0758F0880F991FAA1FBB1F1D3F45
S1131E500CF481601F5F173089F74CC017FF4AC02C
S1131E60D701C60103E0880F991FAA1FBB1F0A955B
S1131E70D1F7881A990AAA0ABB0A812F992787FDE4
S1131E8090951E3FE4F46DEF7FEF681B790BA5017D
S1131E90940104C0220F331F441F551F6A95D2F7C3
S1131EA0CA01B90146015701B694A794979487943F
S1131EB0680D791D8A1D9B1DA701960118C09C0100
S1131EC02D5F3F4FD701C60104C0880F991FAA1F79
S1131ED0BB1F2A95D2F79C01AD01BC01CD0196959B
S1131EE0879577956795680D791D8A1D9B1D0E94BE
S1131EF073331DC023E0210FD701C60104C0880F2E
S1131F00991FAA1FBB1F2A95D2F79C01AD01BC01E2
S1131F10CD019695879577956795680D791D8A1DEE
S1131F209B1D0E9473332150310941095109832FAC
S1131F308F701295107F812B8F832E8381E001C0D7
S1131F4080E0DF91CF911F910F91FF90EF90DF9090
S1131F50CF90BF90AF909F908F9008950F931F9351
S1131F60CF93DF93EC018B011EDE8D818F738D8304
S1131F70F80184819581892B9681992311F098E049
S1131F8001C090E0892B8D83F801408151816281E9
S1131F90738100E018E428EE31E0CE0103DF9C8178
S1131FA098609C839C8190619C83DF91CF911F9169
S1131FB00F910895615071098109910961157105A5
S1131FC081059105B9F70895CF93DF93EB01E7DE1F
S1131FD08883DF91CF910895DACE009709F436C152
S1131FE0803C910521F460E180E00C94E4018034AC
S1131FF024E0920721F468E080E00C94E401811568
S113200024E0920721F464E080E00C94E401803839
S113201021E0920721F462E080E00C94E401811550
S113202021E0920721F461E080E00C94E40180381F
S113203023E0920721F461E081E00C94E40180390B
S113204023E0920721F461E082E00C94E40181151D
S113205022E0920721F462E081E00C94E4018034F0
S113206022E0920721F462E082E00C94E4018115FD
S113207023E0920721F464E081E00C94E4018032CF
S113208023E0920721F464E082E00C94E4018115DA
S113209028E0920721F461E083E00C94E4018115C7
S11320A029E0920721F461E084E00C94E4018115B5
S11320B02AE0920721F461E085E00C94E4018115A3
S11320C02BE0920721F461E086E00C94E401803473
S11320D028E0920721F462E083E00C94E401803468
S11320E029E0920721F462E084E00C94E401803456
S11320F02AE0920721F462E085E00C94E401803444
S11321002BE0920721F462E086E00C94E40180392C
S113211028E0920721F464E083E00C94E401803920
S113212029E0920721F464E084E00C94E40180390E
S11321302AE0920721F464E085E00C94E4018039FC
S11321402BE0920721F464E086E00C94E401803CE7
S113215028E0920721F468E083E00C94E401803CD9
S113216029E0920721F468E084E00C94E401803CC7
S11321702AE0920721F468E085E00C94E401803CB5
S11321802BE0920721F468E086E00C94E401803AA5
S113219028E0920721F460E183E00C94E401803AA2
S11321A029E0920721F460E184E00C94E401803A90
S11321B02AE0920721F460E185E00C94E401803A7E
S11321C02BE0920721F460E186E00C94E401803B6B
S11321D028E0920721F460E283E00C94E401803B60
S11321E029E0920721F460E284E00C94E401803B4E
S11321F02AE0920721F460E285E00C94E401803B3C
S11322002BE0920721F460E286E00C94E40180382C
S113221024E0920721F460E483E00C94E401803923
S113222024E0920721F460E484E00C94E401803A11
S113223024E0920721F460E485E00C94E401803BFF
S1132240944021F460E486E00C94E40108958091C4
S113225020068D7F809320068091280681FD15C07D
S11322608091DD279091DE2701968093DD2790935E
S1132270DE2765E170E080E090E09CDE8091DD2760
S11322809091DE2789359B413CF31092DD27109213
S1132290DE270895E0E2F6E080818E7F8083089552
S11322A081E0E0E0F6E08783E0ECF7E08085817090
S11322B08093E82708951F920F920FB60F9211246E
S11322C008B60F9218BE09B60F9219BE0BB60F923C
S11322D01BBE2F933F934F935F936F937F938F9383
S11322E09F93AF93BF93EF93FF9380EA98E057DDFA
S11322F080932C3880E8E0EAF8E08183FF91EF9145
S1132300BF91AF919F918F917F916F915F914F9109
S11323103F912F910F900BBE0F9009BE0F9008BEF6
S11323200F900FBE0F901F901895CF93DF9380915D
S1132330A8308093C8368091752E8093C9368091D9
S1132340BD368093CA3680916C2C8093CB368091B5
S1132350A9308093CC368091762E8093CD368091AF
S1132360BE368093CE3680916D2C8093CF3680918B
S11323708A0480931C3780919A0480931D3780913E
S1132380AA0480931E378091BA0480931F378091EA
S11323908C0480935C3780919C0480935D3780919A
S11323A0AC0480935E378091BC0480935F3780E4F3
S11323B096E0FC0120812093E436C0E6D6E0288133
S11323C02093E536A0E8B6E02C912093E63640EA67
S11323D056E0FA0120812093E736FC018481809342
S11323E09C378C8180939D3714968C9180939E3773
S11323F0FA01848180939F37DF91CF91089595DF0F
S113240080918A04887A883A21F08091A9308330B7
S113241051F58091F227813041F485EF90E29F934A
S11324208F930E9405350F900F9080918A048C6CD5
S113243080938A0480918804877F809388048091A4
S1132440880488608093880481E08093A930809117
S1132450F227813041F483E091E29F938F930E94AD
S113246005350F900F9080919A04887A883A21F06C
S11324708091762E833051F58091F227813041F49A
S113248085E191E29F938F930E9405350F900F9001
S113249080919A048C6C80939A0480919804877F2D
S11324A0809398048091980488608093980481E0D4
S11324B08093762E8091F227813041F483E291E279
S11324C09F938F930E9405350F900F908091AA04DB
S11324D0887A883A21F08091BE36833091F48091D5
S11324E0AA048C6C8093AA048091A804877F8093AB
S11324F0A8048091A80488608093A80481E0809354
S1132500BE368091BA04887A883A21F080916D2C85
S1132510833091F48091BA048C6C8093BA048091D6
S1132520B804877F8093B8048091B804886080934E
S1132530B80481E080936D2C08951F920F920FB61A
S11325400F92112408B60F9218BE09B60F9219BE45
S11325500BB60F921BBE2F933F934F935F936F93D2
S11325607F938F939F93AF93BF93EF93FF9382EAED
S11325709EE2F0DA44DFFF91EF91BF91AF919F911A
S11325808F917F916F915F914F913F912F910F9018
S11325900BBE0F9009BE0F9008BE0F900FBE0F9098
S11325A01F9018951F920F920FB60F92112408B620
S11325B00F9218BE09B60F9219BE0BB60F921BBE2E
S11325C02F933F934F935F936F937F938F939F9337
S11325D0AF93BF93EF93FF938FE69CE2BBDA0FDFD9
S11325E0FF91EF91BF91AF919F918F917F916F91E7
S11325F05F914F913F912F910F900BBE0F9009BEA9
S11326000F9008BE0F900FBE0F901F9018951F9249
S11326100F920FB60F92112408B60F9218BE09B686
S11326200F9219BE0BB60F921BBE2F933F934F937D
S11326305F936F937F938F939F93AF93BF93EF9326
S1132640FF9387EB94E386DADADEFF91EF91BF9193
S1132650AF919F918F917F916F915F914F913F9136
S11326602F910F900BBE0F9009BE0F9008BE0F90D4
S11326700FBE0F901F9018951F920F920FB60F92D6
S1132680112408B60F9218BE09B60F9219BE0BB6E4
S11326900F921BBE2F933F934F935F936F937F9340
S11326A08F939F93AF93BF93EF93FF9386E69AE242
S11326B051DAA5DEFF91EF91BF91AF919F918F9178
S11326C07F916F915F914F913F912F910F900BBE2E
S11326D00F9009BE0F9008BE0F900FBE0F901F9071
S11326E0189590E0982F882785559F4C20E030E07E
S11326F04FEFFC01E20FF31F40832F5F3F4F211583
S113270051E03507B1F70895CF92DF92EF92FF922F
S11327100F931F93CF93DF933CE7C32E30E2D32E66
S1132720E5E3F0E226E0829FB00111246858714D80
S11327309EE8899FD0011124A650B84DC7E08C9F14
S1132740C00111248E5C954D20E030E0FF24FA9402
S1132750E60149916E01403369F4E08040E050E0C5
S11327604E1568F48B01040F151FE801F8824F5FC2
S11327705F4FF6CF4638D9F0108111110FC02E5F8C
S11327803F4F31962E38310519F7DF91CF911F91C4
S11327900F91FF90EF90DF90CF900895AD01420F1D
S11327A0531FEA01F882123050F3F982E8CFE08037
S11327B040E050E04E1518F78C01040F151FE80196
S11327C0F8824F5F5F4FF6CFEF92FF920F931F9304
S11327D0CF93DF93082F10E0102F002705551F4CCF
S11327E0C0E0D0E055E3E52E51E2F52EF801EC0F00
S11327F0FD1F87A11F928F93FF92EF920E940535D0
S113280021960F900F900F900F90CC30D10571F757
S113281089E595E29F938F930E9405350F900F9061
S1132820DF91CF911F910F91FF90EF9008957F92C8
S11328308F929F92AF92BF92CF92DF92EF92FF92CC
S11328400F931F93CF93DF93082F10E01F928F9362
S113285088E391E29F938F930E94053582E491E28D
S11328609F938F930E94053587E791E29F938F93FF
S11328700E940535102F002705551F4C8DB79EB7B4
S113288008968DBF9EBFC0E0D0E0712C70EBE72EA0
S113289071E2F72EECEACE2EE1E2DE2EF8EBAF2E5B
S11328A0F1E2BF2EA7EB8A2EA1E29A2E209739F4EB
S11328B0DF92CF920E9405350F900F9010C0CE0189
S11328C08F709927892B59F473941F927F92FF92EA
S11328D0EF920E9405350F900F900F900F90F80122
S11328E0EC0FFD1F8081803158F41F928F939F92CB
S11328F08F920E9405350F900F900F900F900AC091
S11329001F928F93BF92AF920E9405350F900F9044
S11329100F900F902196C11591E0D90739F689E5FA
S113292095E29F938F930E9405350F900F90DF914E
S1132930CF911F910F91FF90EF90DF90CF90BF90B8
S1132940AF909F908F907F9008952F923F924F92D7
S11329505F926F927F928F929F92AF92BF92CF922B
S1132960DF92EF92FF920F931F93CF93DF931F9207
S11329701F92CDB7DEB7C82E1F928F932CEB31E296
S11329803F932F930E940535BCE7AB2EB0E2BB2EDC
S113299005E310E287E0C89E30011124D301AE5C48
S11329A0B54D3D01BEE8CB9E40011124E6E0CE9E2C
S11329B060011124C6018858914D6C010F900F904D
S11329C00F900F90E12CF12CD401A650B84D4D017D
S11329D0F50180811F928F93A9ECB1E2BF93AF936D
S11329E00E940535D5018D915D010F900F900F90D8
S11329F00F90863809F04EC0412C512CD8018C918F
S1132A0090E048165906A4F4F301E40DF51D808105
S1132A101F928F93A8EBB1E2BF93AF930E94053549
S1132A20FFEF4F1A5F0A0F900F900F900F90E6CFB1
S1132A3029E535E2D901BF932F9329833A830E9474
S1132A4005350F5F1F4FF2E0EF0EF11C0F900F9052
S1132A5029813A818EE8E816F10409F0B9CF3F9351
S1132A602F930E9405350F900F900F900F90DF91D8
S1132A70CF911F910F91FF90EF90DF90CF90BF9077
S1132A80AF909F908F907F906F905F904F903F900A
S1132A902F900895803331F014012E0C3F1C412CEB
S1132AA0512C1DC0412C512CD8018C9190E048161A
S1132AB059060CF0BDCFF601E40DF51D80811F927F
S1132AC08F93A8EBB1E2BF93AF930E940535FFEF5C
S1132AD04F1A5F0A0F900F900F900F90E5CFD80117
S1132AE08C9190E0481659060CF0A2CFF101E40D48
S1132AF0F51D80811F928F93A8EBB1E2BF93AF9332
S1132B000E940535FFEF4F1A5F0A0F900F900F9048
S1132B100F90E5CFCF93DF93CDB7DEB72797CDBF27
S1132B20DEBF66E070E280EA98E018DAE0EAF8E0F6
S1132B3083818F7C80628383E093F827F093F92765
S1132B408CEE9FE08093F6279093F72784EE9FE026
S1132B508093F4279093F52780910A208D838091A8
S1132B600B208E8380910C208F838091062090917E
S1132B700720A0910820B091092089839A83AB8310
S1132B80BC8360E183E00E94E401BE016F5F7F4F7C
S1132B9080EA98E0E3D96FEF71E088E192E00E9467
S1132BA089342796CDBFDEBFDF91CF91089580E8A9
S1132BB094E013DA4FE75BE260E874E082EA9EE2B5
S1132BC00E94DA0C40E868E382EA9EE20E94EB0C81
S1132BD080E994E002DA45E25AE260E974E08FE6C3
S1132BE09CE20E94DA0C40E868E38FE69CE20E94D3
S1132BF0EB0C80EA94E0F1D94BEC58E260EA74E023
S1132C0087EB94E30E94DA0C40E868E387EB94E3F3
S1132C100E94EB0C80EB94E0E0D941E757E260EBD3
S1132C2074E086E69AE20E94DA0C40E868E386E6FD
S1132C309AE20C94EB0C80E498E00E94F00A60E5C0
S1132C4071E180E498E00E943A0BE0E4F8E08181CD
S1132C50887F818380E197E286A397A386818C7F16
S1132C6086838681816086838081807F876080837C
S1132C7008957F928F929F92AF92BF92CF92DF92EC
S1132C80EF92FF920F931F93CF93DF938EEC91E219
S1132C909F938F930E94053582E491E29F938F93D3
S1132CA00E94053587E791E29F938F930E94053533
S1132CB000EC16E30F900F900F900F900F900F9071
S1132CC0C0E0D0E0712C40EBE42E41E2F42E5CEA4B
S1132CD0C52E51E2D52E68EBA62E61E2B62E77EB17
S1132CE0872E71E2972E209739F4DF92CF920E94BB
S1132CF005350F900F9010C0CE018F709927892B46
S1132D0059F473941F927F92FF92EF920E940535BB
S1132D100F900F900F900F90F80181918F018031E7
S1132D2058F41F928F939F928F920E9405350F90B3
S1132D300F900F900F900AC01F928F93BF92AF9283
S1132D400E9405350F900F900F900F902196C1159A
S1132D50F1E0DF0741F689E595E29F938F930E94A6
S1132D6005358BED91E29F938F930E94053582E4A4
S1132D7091E29F938F930E94053587E791E29F9399
S1132D808F930E9405350DE218E38DB79EB7089620
S1132D908DBF9EBFC0E0D0E0712C80EBE82E81E2B5
S1132DA0F82E9CEAC92E91E2D92E28EBA22E21E21C
S1132DB0B22E37EB832E31E2932E209739F4DF9233
S1132DC0CF920E9405350F900F9010C0CE018F70E6
S1132DD09927892B59F473941F927F92FF92EF9253
S1132DE00E9405350F900F900F900F90F80181917C
S1132DF08F01803158F41F928F939F928F920E947B
S1132E0005350F900F900F900F900AC01F928F936B
S1132E10BF92AF920E9405350F900F900F900F90C4
S1132E202196C115F1E0DF0741F689E595E29F930C
S1132E308F930E9405350F900F90DF91CF911F91D2
S1132E400F91FF90EF90DF90CF90BF90AF909F9045
S1132E508F907F9008952F923F924F925F926F923E
S1132E607F928F929F92AF92BF92CF92DF92EF9216
S1132E70FF920F931F93CF93DF938AE791E29F937F
S1132E808F930E940535C8E6D8E3ADE2EA2EA8E3A5
S1132E90FA2E0F900F9000E010E0B1E52B2EB2E275
S1132EA03B2E82E6682E82E2782E93E7A92E92E2E8
S1132EB0B92E29E5C22E25E2D22E30E8832E32E245
S1132EC0932E1F930F93A8EEB1E2BF93AF930E948A
S1132ED0053588811F928F93A1EFB1E2BF93AF9321
S1132EE00E940535FE01389780811F928F93319798
S1132EF080811F928F93319780811F928F93319796
S1132F0080811F928F93A2E0B2E2BF93AF930E949D
S1132F100535FE01379720813196808190E0982F06
S1132F208827820F911D9F938F93ACE1B2E2BF93E8
S1132F30AF930E940535FE0135972081319680813B
S1132F4090E0982F8827820F911DBC01882777FD78
S1132F508095982F0E94662F20E030E040E251E4F3
S1132F600E94FC2E9F938F937F936F93ADE2B2E206
S1132F70BF93AF930E940535FE01339780811F9262
S1132F808F93A0E4B2E2BF93AF930E940535ADB72F
S1132F90BEB79096ADBFBEBFFE01329780811F922F
S1132FA08F933F922F920E940535FE0131978081C5
S1132FB01F928F937F926F920E940535BF92AF92BA
S1132FC00E9405358DB79EB70A968DBF9EBF412CD2
S1132FD0512CF701E40DF51D808190E00E94163517
S1132FE09FEF491A590AA8E14A16510491F7DF9252
S1132FF0CF920E9405359F928F920E9405350F90C3
S11330000F900F900F90412C512CF701E40DF51DFA
S1133010808D90E00E941635BFEF4B1A5B0A88E161
S11330204816510491F7DF92CF920E940535AAE722
S1133030B1E2BF93AF930E9405350F5F1F4FC05C91
S1133040DF4F90E4E90EF11C0F900F900F900F905A
S11330500430110509F035CFDF91CF911F910F9105
S1133060FF90EF90DF90CF90BF90AF909F908F90A4
S11330707F906F905F904F903F902F90089544E120
S113308050E067E970E08EE49AE20E947935E9EE57
S1133090F6E3AEE4BAE28C9181931D9286E3ED3FB0
S11330A0F807C9F70895EEE4FAE2A9EEB6E38191D0
S11330B08D938AE2E236F807D1F744E150E067E9FC
S11330C070E08EE49AE20C9494350F931F93CF939F
S11330D0DF938DE892E29F938F930E940535C9EEAA
S11330E0D6E30F900F908E01899190E00E941635DF
S11330F0F8018081882321F0F6E3CD3FDF0799F7BB
S113310089E595E29F938F930E9405350F900F9068
S1133110DF91CF911F910F91089548E150E06FE73F
S113312070E08EE49AE20E947935E1E0F7E3AEE4E0
S1133130BAE28C9181931D9287E3E931F807C9F7CC
S113314048E150E067E670E08EE49AE20E94793547
S1133150E1E2F7E3AEE4BAE28C9181931D9287E356
S1133160E933F807C9F70895EEE4FAE2A1E0B7E31A
S113317081918D938AE2E636F807D1F748E150E071
S11331806FE770E08EE49AE20C949435EEE4FAE290
S1133190A1E2B7E381918D938AE2E636F807D1F78D
S11331A048E150E067E670E08EE49AE20C949435CE
S11331B00F931F93CF93DF938BE992E29F938F93A7
S11331C00E940535C1E0D7E30F900F908E018991DD
S11331D090E00E941635F8018081882321F0F7E3FE
S11331E0C931DF0799F789E595E29F938F930E9490
S11331F0053588EA92E29F938F930E940535C1E2D8
S1133200D7E30F900F900F900F908E01899190E06B
S11332100E941635F8018081882321F0F7E3C93331
S1133220DF0799F789E595E29F938F930E9405350F
S11332300F900F90DF91CF911F910F91089548E166
S113324050E06FE470E08EE49AE20E947935E1E4A4
S1133250F7E3AEE4BAE28C9181931D9287E3E935FA
S1133260F807C9F748E150E067E370E08EE49AE2BA
S11332700E947935E1E6F7E3AEE4BAE28C918193FA
S11332801D9287E3E937F807C9F70895EEE4FAE2F7
S1133290A1E4B7E381918D938AE2E636F807D1F78A
S11332A048E150E06FE470E08EE49AE20C949435C7
S11332B0EEE4FAE2A1E6B7E381918D938AE2E63681
S11332C0F807D1F748E150E067E370E08EE49AE252
S11332D00C9494350F931F93CF93DF9385EB92E275
S11332E09F938F930E940535C1E4D7E30F900F900D
S11332F08E01899190E00E941635F801808188231F
S113330021F0F7E3C935DF0799F789E595E29F9343
S11333108F930E94053582EC92E29F938F930E94D3
S11333200535C1E6D7E30F900F900F900F908E01F3
S1133330899190E00E941635F8018081882321F05C
S1133340F7E3C937DF0799F789E595E29F938F93F0
S11333500E9405350F900F90DF91CF911F910F912F
S1133360089548E150E06FE170E08EE49AE20E9433
S11333707935E1E8F7E3AEE4BAE28C9181931D92EA
S113338087E3E939F807C9F748E150E067E070E0FE
S11333908EE49AE20E947935E1EAF7E3AEE4BAE218
S11333A08C9181931D9287E3E93BF807C9F78DEA75
S11333B090E00E94843580933A378CEA90E00E9432
S11333C0843580933B378BEA90E00E948435809368
S11333D03C3781E090E00E9484358093BB3780E0E5
S11333E090E00E9484358093BC370895EEE4FAE2BD
S11333F0A1E8B7E381918D938AE2E636F807D1F725
S113340048E150E06FE170E08EE49AE20C94943568
S1133410EEE4FAE2A1EAB7E381918D938AE2E6361B
S1133420F807D1F748E150E067E070E08EE49AE2F3
S11334300C9494350F931F93CF93DF938FEC92E208
S11334409F938F930E940535C1E8D7E30F900F90A7
S11334508E01899190E00E941635F80180818823BD
S113346021F0F7E3C939DF0799F789E595E29F93DE
S11334708F930E94053589ED92E29F938F930E946A
S11334800535C1EAD7E30F900F900F900F908E018E
S1133490899190E00E941635F8018081882321F0FB
S11334A0F7E3C93BDF0799F7C9E5D5E2DF93CF938B
S11334B00E94053580913A371F928F9383EE92E2F2
S11334C09F938F930E94053580913C37982F9F706E
S11334D01F929F9382958F701F928F9380913B3799
S11334E01F928F9380EF92E29F938F930E940535F2
S11334F08091BB371F928F9383E093E29F938F93C6
S11335000E9405358091BC371F928F9381E293E22C
S11335109F938F930E940535DF93CF930E940535C7
S11335208DB79EB748968DBF9EBFDF91CF911F91F7
S11335300F9108950F931F93CF93DF93C2E0D0E0D0
S11335400BE717E3CE010E948435F80181938F01C4
S11335502196F0E0C730DF07A9F7DF91CF911F91E3
S11335600F9108958CDDD9DD6ADEFBDEE3CF8BE3BA
S113357093E29F938F930E94053580917F371F922A
S11335808F9380917E371F928F9380917D371F9206
S11335908F9380917C371F928F9380917B371F92FA
S11335A08F938DE493E29F938F930E94053589E571
S11335B095E29F938F930E9405358DB79EB74096F1
S11335C08DBF9EBF08958091BF3790913F371F9262
S11335D09F9390913E371F929F9390913D371F92F6
S11335E09F93982F9F701F929F9382958F701F9225
S11335F08F938091BE371F928F938CE593E29F93B4
S11336008F930E9405358CE993E29F938F930E94D8
S1133610053588EA93E29F938F930E9405358CEBDE
S113362093E29F938F930E94053583ED93E29F93DA
S11336308F930E94053583EF93E29F938F930E94AB
S1133640053586E194E29F938F930E94053583E3C9
S113365094E29F938F930E94053587E594E29F93AC
S11336608F930E9405358EE794E29F938F930E9477
S113367005358DB79EB780968DBF9EBF89E994E2CC
S11336809F938F930E94053589EA94E29F938F93C9
S11336900E94053582EC94E29F938F930E94053536
S11336A089ED94E29F938F930E94053586EF94E20F
S11336B09F938F930E94053581E195E29F938F93A9
S11336C00E94053588E295E29F938F930E94053509
S11336D08CE595E29F938F930E94053580E795E2F0
S11336E09F938F930E94053587E895E29F938F936C
S11336F00E9405358DB79EB744968DBF9EBF089531
S113370080ED95E29F938F930E9405350D94000000
S11337100F900F900895EF92FF921F93CF93DF9332
S11337206EE47AE241E057E321E237E381E497E390
S1133730C1E6D7E3A1E8B7E3E1EAEE2EE7E3FE2E24
S113374018E1FB011192BF01FA011192AF01F901D5
S113375011929F01FC011192CF0119921D92F70160
S113376011927F01115069F7E9EEF6E3119286E3B5
S1133770ED3FF807D9F710927B3710927C371092FF
S11337807D3710927E3710927F3710923A3710921D
S11337903B3710923C371092BB371092BC3760E035
S11337A08DEA90E00E949D3560E08CEA90E00E94F2
S11337B09D3560E08BEA90E00E949D3560E080E0FA
S11337C090E00E949D3560E081E090E00E949D358C
S11337D045E050E062E070E08EE49AE20E949435A5
S11337E044E150E067E970E08EE49AE20E94943587
S11337F048E150E06FE770E08EE49AE20E9494356D
S113380048E150E067E670E08EE49AE20E94943565
S113381048E150E06FE470E08EE49AE20E9494354F
S113382048E150E067E370E08EE49AE20E94943548
S113383048E150E06FE170E08EE49AE20E94943532
S113384048E150E067E070E08EE49AE2DF91CF91C6
S11338501F91FF90EF900C9494358091F127882369
S113386071F060913B378CEA90E00E949D35609145
S11338703C378BEA90E00E949D351092F1278091AD
S1133880F027882319F00FDC1092F0278091EF279E
S1133890882319F069DC1092EF278091EE278823A2
S11338A019F074DC1092EE278091ED27882319F02B
S11338B0EDDC1092ED278091EC27882319F0F8DCD9
S11338C01092EC278091EB27882319F08FDD10925A
S11338D0EB278091EA27882319F09ADD1092EA27D2
S11338E08091E927882319F016DF1092E9270895BB
S11338F081110C9427118091200682608093200608
S113390082E08093260608958091280681FF09C0ED
S11339108091200682608093200682E080932606B0
S11339200895809120068D7F80932006809128063B
S113393081FD16C08091DD279091DE27019680934A
S1133940DD279093DE2765E170E080E090E00E943F
S1133950DA0F8091DD279091DE2789359B4134F37E
S11339601092DD271092DE27089581110C944A11DC
S11339708091200681608093200681E08093260652
S113398008950E944A116AE170E080E090E00E948C
S1133990DA0F0E94271165ED70E080E090E00E944C
S11339A0DA0F80E0E2DF6AE670E080E090E00E94F7
S11339B0DA0F80E09DDF81E00895DF92EF92FF92BD
S11339C00F931F93CF93DF93E82ED62E909120066A
S11339D09E7F90932006C7E0D0E0F12C01E010E038
S11339E093DF8091280680FF07C0A8010C2E01C038
S11339F0440F0A94EAF7F42A6AE170E080E090E068
S1133A000E94DA0F81DF6AE170E080E090E00E94BA
S1133A10DA0F219728F76D2D70E02E2D30E021501C
S1133A203109621773079CF480E09FDF6DDF6AE160
S1133A3070E080E090E00E94DA0F66DF0E944A1195
S1133A406AE170E080E090E00E94DA0F10C00E940A
S1133A504A115ADF6AE170E080E090E00E94DA0FD8
S1133A6053DF6AE170E080E090E00E94DA0F8F2D6E
S1133A70DF91CF911F910F91FF90EF90DF90089508
S1133A80CF93DF93C82F6AE670E080E090E00E9455
S1133A90DA0FD8E08C2F881F8827881F66DF34DF71
S1133AA06AE170E080E090E00E94DA0F2DDFCC0F35
S1133AB06AE170E080E090E00E94DA0FD15051F7A3
S1133AC0809120068E7F809320061EDF8091280639
S1133AD080FF0FC06AE170E080E090E00E94DA0F9E
S1133AE013DF6AE170E080E090E00E94DA0F80E08A
S1133AF013C06AE170E080E090E00E94DA0F04DF16
S1133B00809120068160809320066AE170E080E065
S1133B1090E00E94DA0F81E0DF91CF910895EF9257
S1133B20FF920F931F93CF93DF93C82F8B017A01DA
S1133B3028DF882339F18C2FA3DF882369F0E8017B
S1133B4081E09E01201B310B2E153F05F4F4899171
S1133B5097DF8111F6CF19C08091F2278130A1F44B
S1133B602C2F332727FD30953F93CF938BEE95E28F
S1133B709F938F930E9405350F900F900F900F9095
S1133B8080E003C081E001C080E0DF91CF911F910C
S1133B900F91FF90EF90089580E0E7DE80E0A8DECB
S1133BA065E370E080E090E00E94DA0F0E94271144
S1133BB065E370E080E090E00E94DA0F0E944A1111
S1133BC065E370E080E090E00C94DA0FCF92DF922E
S1133BD0EF92FF920F931F93CF93DF93CDB7DEB78E
S1133BE0962FFA010DB71EB730E0A9014F5F5F4F62
S1133BF06DB77EB7641B750B6DBF7EBF6F5F7F4F64
S1133C00ADB7BEB711969C936F01E0E0F0E0E21708
S1133C10F30754F43196D6019D916D017B01EE0EAC
S1133C20FF1ED7019C93F3CF7ADFB6DF0DBF1EBF13
S1133C30DF91CF911F910F91FF90EF90DF90CF9084
S1133C4008950F931F93CF93DF931F92CDB7DEB7E1
S1133C50FC01062F10E00F501F4DD8018C918111EB
S1133C6012C06181828189831092E7208081885CFF
S1133C7021E0AE014F5F5F4F880FA8DF81E08093A2
S1133C80E720F80180830F90DF91CF911F910F916E
S1133C9008958091F12081110AC060E08BEA94E3D9
S1133CA0D0DF65ED74E180E090E00E94DA0F80914E
S1133CB0F22081110AC061E08EEA94E3C2DF65ED6F
S1133CC074E180E090E00E94DA0F8091F32081118A
S1133CD00AC062E081EB94E3B4DF65ED74E180E057
S1133CE090E00E94DA0F8091F42081110AC063E011
S1133CF084EB94E3A6DF65ED74E180E090E00C943E
S1133D00DA0F08950F931F93CF93DF931F921F929F
S1133D10CDB7DEB7FC01062F10E003511F4DD801CB
S1133D208C91811114C061818281898383818A830A
S1133D301092E7208081845C22E0AE014F5F5F4FE8
S1133D40880F44DF81E08093E720F80180830F909F
S1133D500F90DF91CF911F910F9108958091ED20E5
S1133D6081110AC060E082E99EE2CCDF65ED74E176
S1133D7080E090E00E94DA0F8091EE2081110AC069
S1133D8061E086E99EE2BEDF65ED74E180E090E0EB
S1133D900E94DA0F8091EF2081110AC062E08AE963
S1133DA09EE2B0DF65ED74E180E090E00E94DA0FFE
S1133DB08091F02081110AC063E08EE99EE2A2DFC7
S1133DC065ED74E180E090E00C94DA0F0895FF92C1
S1133DD00F931F93CF93DF938091C3368093E7278C
S1133DE058DFBCDF8091E827811192C080910007E1
S1133DF0807F80930007C0E0D0E001E010E0809174
S1133E000807FC2E90E00C2E02C0959587950A9425
S1133E10E2F72091C1363091D13680FD12C0822F55
S1133E2090E00C2E02C0959587950A94E2F780FFE6
S1133E3008C0C8010C2E01C0880F0A94EAF7832B2E
S1133E4008C0C8010F2C01C0880F0A94EAF78095B6
S1133E5083238093D13630E00F2C02C0359527950B
S1133E600A94E2F73091E13620FF33C090E00F2C42
S1133E7002C0959587950A94E2F780FF2AC0832FA4
S1133E8090E00F2C02C0959587950A94E2F780FD87
S1133E9039C0311107C06AEA72E886E090E00E94F6
S1133EA0DA0F06C06AEA71E184E090E00E94DA0F5A
S1133EB020912407C8010F2C01C0880F0A94EAF747
S1133EC0282B209324079091E136982B9093E13688
S1133ED019C0832F90E00F2C02C0959587950A9402
S1133EE0E2F780FF0FC020912407C8010F2C01C006
S1133EF0880F0A94EAF780952823209324078323C4
S1133F008093E1362196C430D10509F078CF30C0D2
S1133F108091000784608093000780910807909146
S1133F20C13680FD04C090FF02C085E001C080E07E
S1133F308093D13690FF10C080FF0EC0809104079B
S1133F408B7F80930407809124078F6080932407DC
S1133F508FE08093E1360CC08091040784608093E5
S1133F60040780912407807F809324071092E13610
S1133F70DF91CF911F910F91FF900895BF92CF923F
S1133F80DF92EF92FF920F931F93CF93DF93809171
S1133F90E827811173C00DE218E3C0E0D0E0F0E13E
S1133FA0EF2EF12CCC24C394D12C8091E80690E020
S1133FB00C2E02C0959587950A94E2F74091C1367C
S1133FC080FF27C08091200797010C2E01C0220F8B
S1133FD00A94EAF7209528232093200796010C2EB3
S1133FE001C0220F0A94EAF7209524232093C136B6
S1133FF080E090E0F801E80FF91F108201968C33FD
S11340009105C1F72196005C1F4FC430D10569F6B4
S113401050C0842F90E00C2E02C0959587950A9489
S1134020E2F780FDEFCF9091200797010C2E01C09D
S1134030220F0A94EAF7922B90932007C6010C2EC4
S113404001C0880F0A94EAF7842B8093C1368091CB
S1134050C2369AEF980F953008F085E08093E820F7
S1134060B12C8091E820B81668F6B1DE65E573E2FC
S113407088E090E00E94DA0FB394F3CF8091E806D1
S113408080FF0FC0809120078F70809320071092CB
S1134090C136EDE2F8E3119288E3E936F807D9F77F
S11340A008C080912007806F8093200781E080936F
S11340B0C136DF91CF911F910F91FF90EF90DF9068
S11340C0CF90BF900895DF92EF92FF920F931F93CA
S11340D0CF93DF93C82FD62E54DC8C2F8160D0DC95
S11340E0882349F00DED16E2C0E0D0E0ED2CFF246A
S11340F0E7FCF09420C081E08093F3274DDD8091AC
S1134100F227813081F42C2F332727FD30953F93FC
S1134110CF9382E096E29F938F930E9405350F9090
S11341200F900F900F908091DA368F3F81F08F5F60
S11341308093DA360CC0CE15DF0544F46C2F8D2D38
S11341403CDCF80181938F012196F5CF25DD8DEDBF
S113415096E2DF91CF911F910F91FF90EF90DF9046
S113416008950F931F93CF93DF931F92CDB7DEB7BC
S1134170182F042F698341E050E0BE016F5F7F4F29
S1134180CEDC811107C008DD81E08093F32780E055
S113419090E003C0602F812F96DF0F90DF91CF91C5
S11341A01F910F91089542E060E082E9DADFFC019B
S11341B080818093E23681818093E33680818F3FD2
S11341C021F481818F3F59F405C0811108C0818198
S11341D0811105C08091E5278F5F8093E527809149
S11341E0E5278B3010F01092E5200895FF920F938D
S11341F01F93CF93DF93C82FD0E08E01085C1F4F2D
S1134200000F111F99E1F92E1092E720E0DD41E043
S11342106CE0802FA6DF8093902E9093912E2091B6
S1134220F327213081F48091D9368F3F19F08F5FC5
S11342308093D9366AEA79E280E090E00E94DA0F4E
S1134240FA9479F50CC021E02093E720FC018081E9
S1134250DC2FCC27C555DF4C8C8781E02BC0E09147
S1134260902EF091912E8FEF808381E08093E72050
S1134270E091902EF091912E8081DC2FCC27C555B2
S1134280DF4C8C878091DB368F3F19F08F5F8093F2
S1134290DB3665E570ED80E090E00E94DA0F80E0A7
S11342A009C01092F32760EC72E180E090E00E9474
S11342B0DA0FAACFDF91CF911F910F91FF9008954C
S11342C0BF92CF92DF92EF92FF920F931F93CF93FF
S11342D0DF93E82EF12C8701085C1F4F000F111F9C
S11342E0D12CB12CFE2CEE24CC24CA941092E720BD
S11342F06EDDCD2DD0E0CD53DF4D41E06881802FC0
S113430030DF8093902E9093912E2091F3272130CB
S113431099F4B3948091D9368F3F19F08F5F8093CD
S1134320D9366AEA79E280E090E00E94DA0F89E106
S1134330B81681F0DA9430C021E02093E720FC0124
S113434080819881F701E90FF11DE555FF4C8083C9
S1134350B12C22C0E091902EF091912EC08281E088
S11343608093E720E091902EF091912E80819881A6
S1134370F701E90FF11DE555FF4C80838091DB3691
S11343808F3F19F08F5F8093DB3665E570ED80E039
S113439090E00E94DA0FB12C1092F32760EC72E1E6
S11343A080E090E00E94DA0FD394FDE1FD1508F05F
S11343B09DCF6AEA79E280E090E0DF91CF911F918E
S11343C00F91FF90EF90DF90CF90BF900C94DA0F95
S11343D0FF920F931F93CF93DF9348E3F42EF80ECD
S11343E0FF0C082F10E0102F002705551F4CC0E0CC
S11343F0D0E041E06C2F8F2DB4DE8093902E90930B
S1134400912EFC018081F801EC0FFD1F808360EC8C
S113441072E180E090E00E94DA0F2196C115F1E08C
S1134420DF0739F7DF91CF911F910F91FF90089526
S11344306F927F928F929F92AF92BF92CF92DF92B0
S1134440EF92FF920F931F93CF93DF93282F30E0C7
S113445079019CE3E90EF11CEE0CFF1CE7E08E9F52
S1134460800111240E5C154D912CC0E0D0E088240D
S1134470839487E4829F6001839FD00C112410925F
S1134480E720A5DC892D90E09C01235F3F4D590175
S1134490FC01EF5DFF4D3F01F9014081F3016081B3
S11344A08E2D5FDE282F8093902E9093912E8092F4
S11344B0E7208091F327813031F4C530D1051CF415
S11344C09A94219632C0F3018081863881F4F501F3
S11344D08081E22FF92F20E030E0281720F5919118
S11344E0D801A20FB31F9C932F5F3F4FF6CF47E431
S11344F050E06CE770E20E94F001F5012081A09188
S1134500902EB091912E222371F03C91F601E80F88
S1134510F91FEE0FFF1FE650F84D3083223018F0DC
S113452011968C918183C0E0D0E01092F32760EC67
S113453072E180E090E00E94DA0F9394F3E1F915C0
S113454008F09DCF6AEA79E280E090E0DF91CF91B4
S11345501F910F91FF90EF90DF90CF90BF90AF909D
S11345609F908F907F906F900C94DA0F5F926F9270
S11345707F928F929F92AF92BF92CF92DF92EF92EF
S1134580FF920F931F93CF93DF9300D01F92CDB769
S1134590DEB7ECE35E2E580E550C90E3998392E05F
S11345A09A8396E89B8391E09C83FCE76F2EF0E26C
S11345B07F2E05E310E226E0829F60011124D601DC
S11345C0A858B14D6D01BEE88B9F40011124F40140
S11345D0E650F84D4F01F7E08F9F500111249501EB
S11345E02E5C354D5901E12CF12CD3016C916033D3
S11345F0E9F444E050E0BE016F5F7F4F852D8FDA10
S1134600C0D966E0852D5FDD8093902E9093912E26
S1134610F8012081FC0180E090E08217B8F4319128
S1134620D601A80FB91F3C930196F7CFD8014C913E
S1134630852D97DD8093902E9093912EF301208108
S1134640D8014C912638A9F1411126C060EC72E1E1
S113465080E090E00E94DA0FFFEF6F1A7F0A22E0F9
S1134660E20EF11C0F5F1F4F3EE8E316F10409F060
S1134670BCCF2496CDBFDEBFDF91CF911F910F91A8
S1134680FF90EF90DF90CF90BF90AF909F908F906E
S11346907F906F905F900895FC012081F401EE0DEE
S11346A0FF1D2083423090F2DC0111968C918183AE
S11346B0CDCFFC0120E030E0241740F68191D501F4
S11346C0A20FB31F8C932F5F3F4FF6CF9091B7305B
S11346D08091E3279F3F09F043C01092DF278111A7
S11346E055C08091E1278F5F8093E1279091DC365C
S11346F09F3F19F09F5F9093DC369091F2279130A1
S113470061F41F928F9389E196E29F938F930E94A5
S113471005350F900F900F900F908091E12788300E
S1134720A8F18091F227813041F485E296E29F93CB
S11347308F930E9405350F900F9080E00E947113B3
S113474080E00E94841381E08093E3271092E127A4
S11347508091DE368F3FD1F08F5F8093DE3616C0B6
S11347601092E127813091F48091F227813041F455
S113477082E396E29F938F930E9405350F900F90EA
S113478080E026DE80E0F2DE1092E3279091B731DC
S11347908091E4279F3F09F043C01092E0278111E4
S11347A055C08091E2278F5F8093E2279091DD3698
S11347B09F3F19F09F5F9093DD369091F2279130DF
S11347C061F41F928F938EE396E29F938F930E94DE
S11347D005350F900F900F900F908091E22788304D
S11347E0A8F18091F227813041F48AE496E29F9304
S11347F08F930E9405350F900F9081E00E947113F2
S113480081E00E94841381E08093E4271092E227E0
S11348108091DF368F3FD1F08F5F8093DF3608952C
S11348201092E227813091F48091F227813041F493
S113483087E596E29F938F930E9405350F900F9022
S113484081E0C6DD81E092DE1092E4270895CF93E3
S1134850DF93FC01C62F908121818281943009F07D
S1134860C1C2823061F463818BEF860F863080F49D
S11348706093C2368EEA90E00E949D3509C0833071
S113488091F463816093C3368FEA90E00E949D3572
S11348904BE1C49F900111242054384C80E090E0F7
S11348A0D0E04FEF0FC3843009F05EC083818111E3
S11348B003C01092E620ECCF813019F48093E620F7
S11348C0E7CF803719F480E083DDE2CF813721F42C
S11348D080E00E947113DCCF823719F481E078DD27
S11348E0D7CF833721F481E00E947113D1CF883769
S11348F019F480E03BDECCCF893721F480E00E94BC
S11349008413C6CF8A3719F481E030DEC1CF8B37E8
S113491021F481E00E948413BBCF803831F40E94DB
S11349208A1581E08093F227B3CF813819F410926D
S1134930F227AECF813979F41092D9361092DA3653
S11349401092DB361092DC361092DD361092DE3691
S11349501092DF369DCF823909F09ACF1092E52765
S113496081E08093E52094CF853009F03FC18381B5
S1134970811103C00E9495118BCF813031F4809155
S11349808804877F8093880483CF823031F48091B8
S11349909804877F809398047BCF833031F480918F
S11349A0A804877F8093A80473CF843031F4809166
S11349B0B804877F8093B8046BCF813131F4809140
S11349C0880488608093880463CF823131F48091B5
S11349D098048860809398045BCF833131F480918C
S11349E0A80488608093A80453CF843131F4809163
S11349F0B80488608093B8044BCF813231F480913D
S1134A00400683608093400643CF823231F4809124
S1134A1060068360809360063BCF833231F48091DB
S1134A20800683608093800633CF843231F4809192
S1134A30A00683608093A0062BCF813309F466C05F
S1134A40823309F486C0833309F4A6C0843309F49D
S1134A50C7C0813431F48091440683608093440656
S1134A6017CF823431F480916406836080936406A6
S1134A700FCF833431F4809184068360809384065D
S1134A8007CF843431F48091A40683608093A40614
S1134A90FFCE813531F4809144068C7F80934406A7
S1134AA0F7CE823531F4809164068C7F809364065E
S1134AB0EFCE833531F4809184068C7F8093840615
S1134AC0E7CE843531F48091A4068C7F8093A406CC
S1134AD0DFCE813609F580914406836080934406D5
S1134AE0809140068360809340066AE278E680E025
S1134AF090E00E94DA0F809144068C7F80934406F4
S1134B006AE278E680E090E00E94DA0F8091400645
S1134B108C7F80934006BCCE823609F58091640672
S1134B20836080936406809160068360809360064E
S1134B306AE278E680E090E00E94DA0F80916406F1
S1134B408C7F809364066AE278E680E090E00E94BD
S1134B50DA0F809160068C7F8093600699CE83364D
S1134B6009F5809184068360809384068091800691
S1134B708360809380066AE278E680E090E00E9499
S1134B80DA0F809184068C7F809384066AE278E64B
S1134B9080E090E00E94DA0F809180068C7F809301
S1134BA0800676CE843609F073CE8091A4068360A5
S1134BB08093A4068091A00683608093A0066AE295
S1134BC078E680E090E00E94DA0F8091A4068C7F62
S1134BD08093A4066AE278E680E090E00E94DA0F0F
S1134BE08091A0068C7F8093A00652CE893259F41E
S1134BF03396AEE4BAE21C9281918D938AE2A63692
S1134C00B807C9F745CE883241F49381983209F048
S1134C10A1C081E08093F0273BCE813459F43396D0
S1134C20AEE4BAE21C9281918D934AE2A636B407AF
S1134C30C9F72ECE803441F49381903409F08AC0B0
S1134C4081E08093EF2724CE813659F43396AEE485
S1134C50BAE21C9281918D938AE2A636B807C9F70D
S1134C6017CE803641F49381903609F073C081E009
S1134C708093EE270DCE8A3741F4638160933A37EF
S1134C808DEA90E00E949D3503CE8B3751F48381E9
S1134C9080933B37848180933C3781E08093F12774
S1134CA0F7CD813859F43396AEE4BAE21C9281917F
S1134CB08D934AE2A636B407C9F7EACD803841F4A9
S1134CC09381903809F046C081E08093ED27E0CDD0
S1134CD0813A59F43396AEE4BAE21C9281918D93F1
S1134CE08AE2A636B807C9F7D3CD803A39F493815E
S1134CF0903A81F581E08093EC27CACD813C59F448
S1134D003396AEE4BAE21C9281918D934AE2A636C0
S1134D10B407C9F7BDCD803C39F49381903CD1F4FC
S1134D2081E08093EB27B4CD813E59F43396AEE411
S1134D30BAE21C9281918D938AE2A636B807C9F72C
S1134D40A7CD803E39F49381903E21F481E0809395
S1134D50EA279ECD95E4980F953058F490E063814E
S1134D60FC01E054F94C6083895B90400E949D35BE
S1134D708FCD8B3F41F463816093BB3781E090E03A
S1134D800E949D3585CD8C3F41F463816093BC378F
S1134D9080E090E00E949D357BCD8A3FA1F4838121
S1134DA0823B09F075CD8481853A09F071CD858106
S1134DB0853609F06DCD86818B3409F069CD81E0AB
S1134DC08093E62765CD893F09F062CD8381893FD1
S1134DD009F05ECD84818F3909F05ACD81E080934A
S1134DE0E92756CD953009F053CD90E040E4249F57
S1134DF0900111248217930781F4339620E030E068
S1134E00835D974C4191DC01A20FB31F4C932F5F3C
S1134E103F4F28313105B1F73BCDA901485E5F4FC3
S1134E208417950781F4339620E030E0835D974C36
S1134E304191DC01A20FB31F4C932F5F3F4F2831E8
S1134E403105B1F725CDA901405D5F4F8417950762
S1134E5089F42381DC01A35DB74C2C9384811196E2
S1134E608C931197858112968C9312978681139651
S1134E708C930ECDA9014C5C5F4F8417950731F0DC
S1134E80A9014A5C5F4F8417950749F42381DC012B
S1134E90A35DB74C2C93848111968C93F9CCA90112
S1134EA0495C5F4F481759070CF0F2CC235C3F4F25
S1134EB0281739070CF4ECCC2381FC01E35DF74C93
S1134EC02083E6CCF901E80FF91F408301968B316A
S1134ED09105C1F7C751DF4D81E08883DF91CF9100
S1134EE00895FF920F931F93CF93DF93D0916A2A73
S1134EF0C0916B2A10916C2A00916A2CD23048F52B
S1134F00CC23C9F02D2F30E0322F2227210F311D61
S1134F1025553F4C80E090E0D0E08C179D070CF0C5
S1134F2034C1F901E80FF91F4081FC01E659F44D41
S1134F3040830196F2CF033008F427C1D093B434F0
S1134F401093B53480916D2A8093B6341092F42076
S1134F501CC1BEEFFB2EFD0E21E02F1508F492C0FC
S1134F60CC2309F45EC01033C1F486E0D89F9001CD
S1134F7011242858314D80E090E0D0E08C179D0733
S1134F800CF003C1F901E80FF91F3C974081FC01C3
S1134F90E659F44D40830196F1CF1638C1F487E009
S1134FA0D89F900111242E5C354D80E090E0D0E034
S1134FB08C179D070CF0E9C0F901E80FF91F3E9723
S1134FC04081FC01E659F44D40830196F1CF47E45A
S1134FD050E06CE770E2812F0E94F00197FD1DC044
S1134FE027E4D29F800D911D1124880F991F8650AC
S1134FF0984D20E030E0D0E02C173D070CF0C5C000
S1135000FC01E20FF31FEC51F1404081F901E65934
S1135010F44D40832F5F3F4FEFCF8FEF80936A2B88
S1135020B4C047E450E06CE770E2812F0E94F001C5
S113503097FD08C0FC01EB5CFF4D208130E02F5F41
S11350403F4F02C022E030E0402F50E024173507E4
S11350500CF09BC0F0929E2E10939F2EE0EAFEE28D
S113506080E090E0425051098417950744F4DC0134
S1135070A759B54D14962C9121930196F5CF109212
S1135080F02083C0D43009F049C0CC23F9F09091CA
S1135090E42020E030E06C2F70E0412F50E04054D9
S11350A0594C261737070CF070C0111102C0C130DB
S11350B029F0FA01E20FF31F808101C0892FF90161
S11350C0E659F44D80832F5F3F4FEBCF1092EC20D5
S11350D0033008F45AC0D093113883E08093123817
S11350E010931338E4E1F8E380E090E0202F30E0FF
S11350F0225031098217930744F4DC01A759B54DB6
S113510014964C9141930196F5CF63E081E198E3C5
S1135110DF91CF911F910F91FF9099CBD530A9F5D5
S1135120CC23A9F020E030E0D0E0812F90E0835D33
S1135130974C2C173D074CF5FC01E20FF31F4081FF
S1135140F901E659F44D40832F5F3F4FF2CF10929F
S1135150EC200330D0F0D093113883E080931238E0
S113516010931338E4E1F8E380E090E0202F30E07E
S1135170225031098217930744F6DC01A759B54D33
S113518014964C9141930196F5CFDF91CF911F91E5
S11351900F91FF900895FF920F931F93CF93DF9386
S11351A0D091BB34C091BC341091BD340091BB3656
S11351B0D23048F5CC23C9F02D2F30E0322F2227EE
S11351C0210F311D25553F4C80E090E0D0E08C1735
S11351D09D070CF034C1F901E80FF91F4081FC016F
S11351E0E554FA4C40830196F2CF033008F427C10A
S11351F0D093B1341093B2348091BE348093B334DD
S11352001092F3201CC18EEFF82EFD0E21E02F1515
S113521008F492C0CC2309F45EC01033C1F486E0D4
S1135220D89F900111242858314D80E090E0D0E0BF
S11352308C179D070CF003C1F901E80FF91F3C9787
S11352404081FC01E554FA4C40830196F1CF1638B5
S1135250C1F487E0D89F900111242E5C354D80E085
S113526090E0D0E08C179D070CF0E9C0F901E80F3D
S1135270F91F3E974081FC01E554FA4C40830196A6
S1135280F1CF47E450E06CE770E2812F0E94F00117
S113529097FD1DC027E4D29F800D911D1124880F16
S11352A0991F8650984D20E030E0D0E02C173D0740
S11352B00CF0C5C0FC01E20FF31FEC51F14040813A
S11352C0F901E554FA4C40832F5F3F4FEFCF8FEF46
S11352D08093BB35B4C047E450E06CE770E2812FA3
S11352E00E94F00197FD08C0FC01EB5CFF4D20819A
S11352F030E02F5F3F4F02C022E030E0402F50E00B
S1135300241735070CF09BC0F0929A2E10939B2E15
S1135310ECE9FEE280E090E04250510984179507E1
S113532044F4DC01A654BB4C14962C9121930196B1
S1135330F5CF1092EF2083C0D43009F049C0CC23BC
S1135340F9F09091E32020E030E06C2F70E0412FE1
S113535050E04054594C261737070CF070C0111117
S113536002C0C13029F0FA01E20FF31F808101C0AD
S1135370892FF901E554FA4C80832F5F3F4FEBCF1F
S11353801092EB20033008F45AC0D093F63782E031
S11353908093F7371093F837E9EFF7E380E090E074
S11353A0202F30E0225031098217930744F4DC01A6
S11353B0A654BB4C14964C9141930196F5CF62E0F0
S11353C086EF97E3DF91CF911F910F91FF903FCA32
S11353D0D530A9F5CC23A9F020E030E0D0E0812F2E
S11353E090E0835D974C2C173D074CF5FC01E20FD0
S11353F0F31F4081F901E554FA4C40832F5F3F4F7E
S1135400F2CF1092EB200330D0F0D093F63782E045
S11354108093F7371093F837E9EFF7E380E090E0F3
S1135420202F30E0225031098217930744F6DC0123
S1135430A654BB4C14964C9141930196F5CFDF9141
S1135440CF911F910F91FF900895FF920F931F9397
S1135450CF93DF93D091732CC091742C1091752C41
S11354600091732ED23048F5CC23C9F02D2F30E0B3
S1135470322F2227210F311D25553F4C80E090E02B
S1135480D0E08C179D070CF034C1F901E80FF91F27
S11354904081FC01ED58F24D40830196F2CF033078
S11354A008F427C1D093AE341093AF348091762C96
S11354B08093B0341092F2201CC13EEFF32EFD0E07
S11354C021E02F1508F492C0CC2309F45EC01033F8
S11354D0C1F486E0D89F900111242858314D80E012
S11354E090E0D0E08C179D070CF003C1F901E80FA0
S11354F0F91F3C974081FC01ED58F24D4083019621
S1135500F1CF1638C1F487E0D89F900111242E5CA6
S1135510354D80E090E0D0E08C179D070CF0E9C099
S1135520F901E80FF91F3E974081FC01ED58F24D57
S113553040830196F1CF47E450E06CE770E2812F9D
S11355400E94F00197FD1DC027E4D29F800D911D9C
S11355501124880F991F8650984D20E030E0D0E048
S11355602C173D070CF0C5C0FC01E20FF31FEC51F2
S1135570F1404081F901ED58F24D40832F5F3F4FD8
S1135580EFCF8FEF8093732DB4C047E450E06CE706
S113559070E2812F0E94F00197FD08C0FC01EB5CD2
S11355A0FF4D208130E02F5F3F4F02C022E030E00A
S11355B0402F50E0241735070CF09BC0F092962E34
S11355C01093972EE8E9FEE280E090E04250510902
S11355D08417950744F4DC01AE58B34D14962C910E
S11355E021930196F5CF1092EE2083C0D43009F0B8
S11355F049C0CC23F9F09091E22020E030E06C2FF8
S113560070E0412F50E04054594C261737070CF0F6
S113561070C0111102C0C13029F0FA01E20FF31F6A
S1135620808101C0892FF901ED58F24D80832F5FED
S11356303F4FEBCF1092EA20033008F45AC0D093C6
S1135640DB3781E08093DC371093DD37EEEDF7E351
S113565080E090E0202F30E0225031098217930738
S113566044F4DC01AE58B34D14964C914193019629
S1135670F5CF61E08BED97E3DF91CF911F910F910F
S1135680FF90E5C8D530A9F5CC23A9F020E030E09F
S1135690D0E0812F90E0835D974C2C173D074CF5AB
S11356A0FC01E20FF31F4081F901ED58F24D4083F4
S11356B02F5F3F4FF2CF1092EA200330D0F0D09307
S11356C0DB3781E08093DC371093DD37EEEDF7E3D1
S11356D080E090E0202F30E02250310982179307B8
S11356E044F6DC01AE58B34D14964C9141930196A7
S11356F0F5CFDF91CF911F910F91FF900895FF9205
S11357000F931F93CF93DF93D091A62EC091A72E12
S11357101091A82E0091A630D23048F5CC23C9F0C0
S11357202D2F30E0322F2227210F311D25553F4CDC
S113573080E090E0D0E08C179D070CF037C1F901B0
S1135740E80FF91F4081FC01EA55F04D40830196B2
S1135750F2CF033008F42AC1D093AB341093AC34A5
S11357608091A92E8093AD341092F1201FC16EEF69
S1135770F62EFD0E21E02F1508F492C0CC2309F477
S11357805EC01033C1F486E0D89F900111242858DC
S1135790314D80E090E0D0E08C179D070CF006C1FD
S11357A0F901E80FF91F3C974081FC01EA55F04DDF
S11357B040830196F1CF1638C1F487E0D89F900159
S11357C011242E5C354D80E090E0D0E08C179D07CD
S11357D00CF0ECC0F901E80FF91F3E974081FC0181
S11357E0EA55F04D40830196F1CF47E450E06CE771
S11357F070E2812F0E94F00197FD1DC027E4D29F23
S1135800800D911D1124880F991F8650984D20E01A
S113581030E0D0E02C173D070CF0C8C0FC01E20FCB
S1135820F31FEC51F1404081F901EA55F04D4083FA
S11358302F5F3F4FEFCF8FEF8093A62FB7C047E482
S113584050E06CE770E2812F0E94F00197FD08C0E0
S1135850FC01EB5CFF4D208130E02F5F3F4F02C025
S113586022E030E0402F50E0241735070CF09EC0B2
S1135870F092922E1093932EE4E9FEE280E090E001
S1135880425051098417950744F4DC01AB55B14DDE
S113589014962C9121930196F5CF1092ED2086C099
S11358A0D43009F04BC0CC23F9F09091E12020E0F2
S11358B030E06C2F70E0412F50E04054594C2617D3
S11358C037070CF073C0111102C0C13029F0FA017E
S11358D0E20FF31F808101C0892FF901EA55F04DD1
S11358E080832F5F3F4FEBCF1092E920033008F401
S11358F05DC0D093C0371092C1371093C237E3EC28
S1135900F7E320E030E0802F90E002972817390772
S11359105CF4DF01A05CB743AE55B14D14964C91D5
S113592041932F5F3F4FF2CF60E080EC97E3DF912C
S1135930CF911F910F91FF900C942724D530B1F58E
S1135940CC23A9F020E030E0D0E0812F90E0835D0B
S1135950974C2C173D0754F5FC01E20FF31F4081CF
S1135960F901EA55F04D40832F5F3F4FF2CF10927B
S1135970E9200330D8F0D093C0371092C137109388
S1135980C237E3ECF7E320E030E0802F90E00297A9
S1135990281739074CF6DF01A05CB743AE55B14D6B
S11359A014964C9141932F5F3F4FF2CFDF91CF91EB
S11359B01F910F91FF9008950F931F93CF93DF933F
S11359C08C01C0E0D0E0C017D10754F460EC72E160
S11359D080E090E00E94DA0F0E94E71E2196F3CF48
S11359E0DF91CF911F910F91089580E00E94F620DE
S11359F0882369F080E00E94602185E090E0DCDF8C
S1135A008091B730823418F480E00E94182284E137
S1135A1090E0D2DF81E00E94F620882369F081E0E3
S1135A200E94602185E090E0C7DF8091B731823425
S1135A3018F481E00E94182284E190E0BDCF8091A7
S1135A40C80781708093E8278FE080932007109225
S1135A5024076AEA76E480E190E00E94DA0F85EA9E
S1135A608093BD3781E08093BE3780E48093BF3755
S1135A7081E180933D37C7E0C0933E378EE0809349
S1135A803F378EEA90E00E9484358093C2368FEAD5
S1135A9090E00E9484358093C336C093A20054D111
S1135AA00E94BC010E941B160E94D715C093A2003D
S1135AB078940E94BE1F65E571E681E590E00E943E
S1135AC0DA0F80E00E94E82181E00E94E82180E072
S1135AD00E94B62281E00E94B62280E00E94E82162
S1135AE081E00E94E82180E00E94B62281E00E94C9
S1135AF0B6220E94B21AC9E5D5E202E716E2A3E68D
S1135B00EA2EA6E2FA2EBAE6CB2EB6E2DB2E0E94ED
S1135B10FF110E94BE1F0E94491E0E94AE1E0E94D9
S1135B202D1C8091E62781110E94801B8091E62024
S1135B3081115BDF0E9466238091E52081110E9420
S1135B40D3208091F227813011F780912C3890E096
S1135B50FC01E156F109EA31F10508F0BEC0E65056
S1135B60FF4FE3C5FF92EF9250D70E94D32080915C
S1135B70E3361F928F938091E2361F928F93DF92C8
S1135B80CF9243D710922C388DB79EB708968DBF0D
S1135B909EBFBDCF0E941A1A10922C38B8CF0E9413
S1135BA06A1910922C38B3CF80E00E94E82181E07A
S1135BB00E94E8211F930F9328D710922C380F903E
S1135BC00F90A5CF80E00E94602181E00E946021B7
S1135BD010922C389CCF80E00E94E41381E00E9454
S1135BE0E41310922C3893CF80E00E94B62281E017
S1135BF00E94B62210922C388ACF80E00E9418228C
S1135C0081E00E94182210922C3881CF0E94B71A8A
S1135C1010922C387CCF0E94E31A10922C3877CF44
S1135C2080E00E94171481E00E94171410922C380F
S1135C306ECF0E94D81810922C3869CF80E00E9451
S1135C40A51481E00E94A51410922C3860CF0E9404
S1135C50801B10922C385BCF0E94651810922C3850
S1135C6056CF80E00E94711381E00E94711310925C
S1135C702C384DCF0E94391610922C3848CF0E94F0
S1135C802B1710922C3843CFFFEDAF2EF0E3BF2E2D
S1135C90F50181915F0190E0C9D6F8EEAF16F0E30B
S1135CA0BF06B1F7DF93CF93B0D6EFEDAE2EE1E3AD
S1135CB0BE2E0F900F90F50181915F0190E0B6D652
S1135CC0F8EEAF16F1E3BF06B1F7DF93CF939DD69D
S1135CD010922C380F900F901ACF10922C3817CFA7
S1135CE0FC0180E090E0262F30E0D901082E02C0AC
